:020000040800F2
:1000000070050020D5000008691900080F180008C5
:1000100000000000000000000000000000000000E0
:10002000000000000000000000000000811A00082D
:100030000000000000000000B1190008831A000849
:10004000E7000008E7000008E7000008E7000008F4
:10005000E7000008E7000008E70000088307000841
:10006000E7000008E7000008E7000008E7000008D4
:10007000E7000008E700000800000000E7000008B3
:1000800000000000E7000008000000000000000081
:10009000E700000800000000E7000008E700000893
:1000A000E7000008E7000008E7000008E700000894
:1000B000E7000008E7000008E7000008E700000884
:1000C0000348854600F038FB00480047C92B00086C
:1000D000700500200448804704480047FEE7FEE71B
:1000E000FEE7FEE7FEE7FEE7011B0008C10000088F
:1000F00030B50B46014600202022012409E00D46C0
:10010000D5409D4205D31D469540491B2546954047
:1001100040191546521E002DF1DC30BDF0B51FB45C
:100120000646002082B005464024019100901BE065
:10013000019922460F46304600F066F9049A059B65
:10014000801A994110D310461946224600F04CF906
:10015000361A8F410197224601200021009F00F0AE
:1001600043F938184D4100902046641E0028DFDC1A
:10017000019B00982946324607B0F0BDD2B201E09B
:100180000270401C491EFBD270470022F6E710B5F2
:1001900013460A4604461946FFF7F0FF204610BDF5
:1001A000F0B51FB488B00B9909980024484009990C
:1001B000C00F490049080991C0070B9900904900F8
:1001C00049080B9109990898A64608431CD00B9939
:1001D0000A98084318D0099801244000420D4800AD
:1001E000410D099824050003000B204309900B984A
:1001F0000003000B20430B9050181C4940180022AC
:1002000001901446104605E0002001460DB0F0BDF7
:10021000032801DA034600E003239C46C11A0AAE14
:100220000AE05F0008ADED5B4F00F75B7D43002700
:10023000AA187C41491C5B1E6145F2DD410004ABFC
:100240005A522104120C0A43240C401C0828DFDBFC
:10025000019802900099704601910090059B049AC4
:100260000799069800F02FF9D0E700000DFCFFFF7A
:10027000F0B50C465C4085B0E40FE40703944C00F5
:100280000026640859009446490802460296224313
:1002900021D062460A431ED06200570D4A000E0369
:1002A0002303550D012402462C492405781B1B0B02
:1002B000360B401823432643614600901C46501AD3
:1002C000B44103D30098401C009002E092180098BB
:1002D0005B41002803DA0020014605B0F0BD002094
:1002E000012109050746864611E064461D46141B98
:1002F000B54106D36546521BB341744607430C43D0
:10030000A646CD0740084908284392185B41054698
:100310000D43EAD11046184313D0604619465040A9
:100320007140084306D06046101AB34106D201223C
:10033000002306E000220123DB0702E00122D24372
:100340005310009874460105381C6141029C039DBE
:100350000019694100F0AAF8BFE70000FD030000A2
:100360000EB5C217C10F5040CA0740180021054BF7
:100370000293019200910A460B4600F0A4F803B0E4
:1003800000BD000033040000C20FD2074000400847
:100390000BD0C10D0723DB01C91840020905400A33
:1003A0001143C208400711437047002001467047BF
:1003B000CB0FDB07490010B5490802460A4307D0B6
:1003C0000A0D07240903E401090B121B002A01DCB2
:1003D000002010BDC900440F0C43C100E018D20535
:1003E000801800F022F810BD10B5202A04DB014669
:1003F000203A9140002010BD914020239C1A0346D2
:10040000E3401943904010BD10B5202A04DB084694
:10041000203AD040002110BD0B46D340D0402024CC
:10042000A21A91400843194610BD002904DA401C65
:10043000490001D140084000704770B40024050C09
:1004400005D11024000402D1002921D01124050E69
:1004500001D100020834050F01D10001241D850FD0
:1004600001D18000A41C002801DB4000641C00298D
:1004700008D020252E1B0D46F540A14000D00121BB
:100480002943084301061B1B000ADB1D02D500207F
:1004900070BC7047DB05181880180029F8DA401C7A
:1004A0004900F5D170BC40084000704710B5002BE2
:1004B00008DA0024401C614192185B411A4301D1C3
:1004C0004008400010BDF0B51FB482B005460C00D6
:1004D00003D0084601F054FD02E001F051FD203048
:1004E0000246009021462846FFF77EFF049B059AAE
:1004F00004460F4618431143084314D018461043CE
:100500001BD0009840210A1A18460599FFF77CFF76
:1005100005460E46009A05990498FFF765FF0843C3
:1005200005D0012004E02046394607B0F0BD002088
:10053000C11705430E432C43374300990E986305BA
:10054000401A7905E40A00220C43FD0A0A3002D55C
:1005500000200146E9E70105101969410C9C0D9D39
:1005600000196941FFF7A2FFDFE70000F0B5074679
:100570000846584087B0C00F049048000E46590006
:1005800040084908BC1A884105D2384631461E4603
:1005900017460B4602465800400810434CD0300D19
:1005A000039040055900400D490D0590401A0290F6
:1005B000402872DA18030121000B09050843019055
:1005C00004980092002805D00199524200208841E9
:1005D00000920190029840210A1A01990098FFF7B1
:1005E00003FF05460C466B4607CB00F0B7F8C01971
:1005F0007141039A0E0D0023D71756401A467A40D0
:10060000164344D0049A002A2DD0029A012A039A54
:1006100015DC1205C01A914101263605001C7141F6
:10062000D20F059ED2070093019202962A462346D6
:10063000FFF749FF07B0F0BD38463146FAE7160527
:10064000224A0F46B218C01AB74101210905001C01
:100650004F4100187F41114618187941E20F1043AD
:100660006D19644113E0E2076D0815436408C20781
:100670001443039A01261205C01A91413605001C45
:100680007141CE07400830434908C01851412A46FD
:100690002346FFF70BFFCDE7FFE704980122400058
:1006A000C117121A00238B4104983146C417381A17
:1006B000A141EEE730B40124E407634030BC55E7C4
:1006C00030B40124E407614030BC4FE70000E0FF94
:1006D0004A0009030123090B1B0519430A4B10B5F6
:1006E000520D9A4202DA0020014610BD064B343307
:1006F0009A4203DC9A1AFFF787FE10BD034BD2180B
:10070000FFF772FE10BD0000FF030000CDFBFFFFEE
:1007100010B5002904DB0124E40740428C41214646
:10072000002B04DB1C460123DB075242A341994204
:1007300000D1904210BD0000064C0125064E05E098
:10074000E36807CC2B430C3C98471034B442F7D3F2
:10075000FFF7BAFC4C2D00086C2D000810B5202ABC
:1007600006DBCB170846203A1041C1170B4306E0C1
:100770000B461341D0402024A21A91400843194649
:1007800010BD10B5102000F02BF810BD7047000010
:1007900070B5044600F000F90546601C02D004481C
:1007A0000078241800F0F8F8401BA042FAD370BD7E
:1007B0000400002010B5012181F31088102809D110
:1007C00005201021000700F0D3F8002802D10349CA
:1007D00001200870002080F3108810BD0000002068
:1007E00010B504494A69024202D04861FFF7E2FFAE
:1007F00010BD000000040140FCB500230124A2E06C
:1008000027462A469F403A406FD04D68012D05D0BB
:10081000022D03D0112D01D0122D16D1856803268B
:10082000AC465D00AE46AE406546B543AC46CE68CC
:100830007546AE4065462E43866046680D79BE43D8
:10084000ED06ED0F9D4035434560C6685F0003250A
:10085000BD40AE46AE4335468E68BE402E43C660B0
:100860004E68022E01D0122E14D1DE08B6003618C2
:100870000196366A5D07B446EE0E0F25B540009628
:100880006646AE43B4460D69009EB54066462E43AB
:10089000019D2E6206687546AE430D79AD07AD0F1A
:1008A000BD40354305604D68ED004BD5294D6E6B5D
:1008B00026436E639E08284DB6007519AC46AD6898
:1008C0009E07360F0F27B740BD4305273F07B842A5
:1008D00001D1002715E0214FB84201D1012710E0D6
:1008E0001F4FB84202D102270BE02BE01D4FB84248
:1008F00001D1032705E01C4FB84201D1052700E0D4
:100900000627B7402F436546AF60184D2E684F68E5
:100910009643FF0300D516432E606E684F689643DA
:10092000BF0300D516436E60AE684F689643FF0262
:1009300000D51643AE60EE684F689643BF0200D5FF
:100940001643EE605B1C0A681546DA4000D057E794
:10095000FCBD0000001002400000014000040050F7
:1009600000080050000C0050001C00500004014022
:100970000069084000D001207047426913460B40CF
:100980001B0491430B4383617047002A01D08161AE
:10099000704781627047000001488068704700001E
:1009A000040000200248816802788918816070473D
:1009B0000400002010B508480024016840221143BB
:1009C0000160204600F00AF8002801D0012401E06F
:1009D00000F026F8204610BD0020024070B5044605
:1009E0000D4D7D202978C000FFF782FB01460B48A2
:1009F0000068FFF77DFB00F0BBFD002809D1042C47
:100A000007D200222146401E00F020F800206C6032
:100A100070BD012070BD0000040000201000002007
:100A20000448416B012211434163816B020411436D
:100A30008163704700100240C106C90E0120884042
:100A4000014908607047000000E100E010B500F0C7
:100A50008DFF10BDF8B504460068614D810601D4D4
:100A600000057DD55E4E0027403EB06BC00004D42B
:100A7000B06B31040843B06301275A480168C905C7
:100A800011D40168821511430160FFF785FF0090C2
:100A900005E0FFF781FF0099401A642844D85148C7
:100AA0000068C005F5D53168032000056268014083
:100AB0001040884205D10323A0681B0518408842D6
:100AC00008D09003800F032804D13068800301D53B
:100AD0000120F8BD286903210904084029D00A40F3
:100AE000824202D02278920606D4A2680A4082424C
:100AF0001FD0208800051CD528692A698843012158
:100B0000C9040A432A612A698A432A612861C00507
:100B10000FD5FFF741FF009008E0FFF73DFF009978
:100B2000411A3148814201D90320F8BD2869800566
:100B3000F3D561688803800F032805D1326800056A
:100B4000824301400A43326028690322616812042B
:100B5000114008432861002F06D0B16B012000E04E
:100B600002E000078143B1632078C00705D0E86840
:100B7000E168800880000843E8602078800705D598
:100B8000E8680C21884321690843E8602078400721
:100B900006D5E86803218902884361690843E86053
:100BA0002078000706D5E868032109038843A16976
:100BB0000843E8602078400606D5E86801218906E8
:100BC0008843216A0843E8602078000606D5E86873
:100BD000032189048843E1690843E8600020F8BDE7
:100BE000401002400070004088130000F8B50E4627
:100BF00005007DD053480068C007C00FB0420AD23C
:100C00005048016849084900314301600068C00745
:100C1000C00FB04271D128784B4C800705D5E068F1
:100C2000F0218843A9680843E0602878C00752D0C3
:100C30006868022817D0032818D02168012818D026
:100C40008905002959DAE168890889000143E160D2
:100C5000FFF7A2FE69680746022912D003291CD0BB
:100C6000012926D033E021688903EAE72168890158
:100C7000E7E74907E5E7FFF78FFEC11B33488142ED
:100C800023D8E0680007800F0228F4D123E0FFF7A3
:100C900083FEC11B2D48814217D8E0680007800FF2
:100CA0000328F4D117E0FFF777FEC11B27488142E4
:100CB0000BD8E0680007800F0128F4D10BE0FFF7A4
:100CC0006BFEC11B2148814201D90320F8BDE068B9
:100CD0000007800FF3D11B480168C907C90FB14253
:100CE0000DD901684908490031430160006800E0FE
:100CF00003E0C007C00FB04201D00120F8BD287842
:100D0000400706D5E068072109028843E9680843DF
:100D1000E0602878000707D5E0680721C90288430A
:100D20002969C9000843E06000F036F8E168084A24
:100D30000906090F515CC840064908600020FFF70A
:100D40004DFEF8BD00200240001002408813000054
:100D50002A2D000810000020044805490068C968D1
:100D6000044A4905490F515CC840704710000020F3
:100D700000100240432D0008044805490068C96876
:100D8000044A8904490F515CC84070471000002094
:100D900000100240432D000810B5184AD1680C20FD
:100DA000084004280BD0082810D00C2810D0506818
:100DB0000004410F0120C003491C884010BD106889
:100DC000C00601D50E4810BD0E4810BD0E4810BD1E
:100DD00088020E4B000F185C0902D368890F491C6A
:100DE000DB0301D5084A05E01268D20601D5044AA2
:100DF00000E0044A5043FFF77BF910BD00100240A9
:100E000000093D000024F400001BB7003A2D000843
:100E1000FEB505007ED0FE4CE7680C20E668074072
:100E20000120000406402878C00747D0082F05D0CD
:100E30000C2F0AD101200004864206D120688003CD
:100E40003CD568680028E5D038E0012069680004D6
:100E5000814203D121680143216011E00523012271
:100E60001B0492049942216802D111432160F1E7E9
:100E700081432160216801400091206890432060F7
:100E8000686800280DD0FFF787FD009005E0FFF7A8
:100E900083FD0099401A64287AD820688003F6D52B
:100EA0000CE0FFF779FD009005E0FFF775FD009974
:100EB000401A6428F0D820688003F6D42878800788
:100EC00055D50923E868042F0DD00C2F01D1002E31
:100ED00009D000283BD02168994301432160FFF7E6
:100EE0005BFD064627E02168490701D5002891D01F
:100EF00061681F22120291432A6912021143616044
:100F00002168994301432160FFF746FFE168090624
:100F10000A0F00E0BBE1BF49895CC840BE490860D8
:100F20000020FFF75BFD002872D120E0FFF734FDC1
:100F3000801B0228B0D820684007F7D560681F21C1
:100F40000902884329690902084360600FE02068AC
:100F5000400840002060FFF71FFD064604E0FFF751
:100F60001BFD801B022897D820684007F7D42878FB
:100F7000C0065FD5002F0CD0E869002849D0206852
:100F8000FF21013108432060FFF706FD06462DE0F2
:100F9000E4E02068800502D5E8690028A7D06068F1
:100FA000072149038843696A084360606068298CA7
:100FB0000002000A090608436060686A410B0120CC
:100FC000C003491C8840E16809060A0F9149895C01
:100FD000C840914908600020FFF700FD002817D1A4
:100FE00028E0FFF7D9FC801B0228A3D820688005E1
:100FF000F7D56068072149038843696A0843606040
:101000006068298C0002000A09060843606011E04C
:1010100023E12168FF20013081432160FFF7BCFC00
:10102000064604E0FFF7B8FC801B02289BD8206826
:101030008005F7D42878794E000724D56869002800
:10104000306910D0012108433061FFF7A5FC009002
:1010500005E0FFF7A1FC0099401A02287ED830690C
:101060008007F6D50FE0400840003061FFF794FCA0
:10107000009005E0FFF790FC0099401A02286DD817
:1010800030698007F6D42878400764D500200290A4
:10109000A06BC00006D4A06B012109070843A06320
:1010A000012002905E480168C90511D401688215CB
:1010B00011430160FFF770FC009005E0FFF76CFC46
:1010C0000099401A642849D855480068C005F5D5EC
:1010D000FF20AA680130824203D1316901433161A6
:1010E00011E001218902002A07D005231B029A4240
:1010F00003D132690A433261EFE7326982433261D8
:10110000306988433061A86800280ED0FFF744FC9E
:10111000009006E0FFF740FC0099411A41488142E7
:101120001CD830698005F5D50DE0FFF735FC00903F
:1011300006E0FFF731FC0099411A3A4881420DD888
:1011400030698005F5D40298002804D0A16B0120F5
:1011500000078143A1632878800600E07CE02ED55B
:101160003148A9694314002916D0A26801210A4315
:10117000A260626B0A436263016A19430162FFF76E
:101180000BFC064604E0FFF707FC801B022863D82F
:10119000A0688007F7D512E0A16849084900A1605E
:1011A000016A99430162FFF7F7FB064604E0FFF787
:1011B000F3FB801B02284FD8A0688007F7D4A86AE9
:1011C000002866D00C2F4DD0012636060228206854
:1011D00005D0B0432060FFF7DFFB05463EE0B0439B
:1011E0002060FFF7D9FB074604E0FFF7D5FBC01BE3
:1011F000022831D820688001F7D4296BE86AE268B8
:101200000843696BFD231B049A43114308430DE017
:10121000001002402A2D000810000020401002405B
:10122000007000408813000000000140E06020686A
:1012300030432060FFF7B0FB054604E0FFF7ACFB4E
:10124000401B022808D820688001F7D521E0FFF76D
:10125000A3FB401B022801D90320FEBD20688001AA
:10126000F5D416E00128F8D0E06801210904EA6A03
:10127000014091420BD10F2189042A6B0140914218
:1012800005D1032189050840696B884201D00120FE
:10129000FEBD0020FEBD70B5040007D00026254627
:1012A0004035A662687C002802D005E0012070BDB0
:1012B0002E74204600F030F802206874206801681F
:1012C000402291430160A168606822690843E16897
:1012D00011430843616901220843A1695202114088
:1012E0000843E1690843216A0843A16A0843216869
:1012F0000860A0690421000C0840616A0843216865
:1013000048602068C16992009143C161666501200F
:101310006874002070BD0000F0B587B00446142149
:101320006846FEF732FF14492068884221D11348ED
:10133000416B821411434163C16A01221143C162AE
:10134000C06A022410400590A020002503266946AB
:1013500071C1C705694638460495FFF74DFA40202C
:101360000090019469460396049502943846FFF76D
:1013700043FA07B0F0BD0000003001400010024009
:10138000FFB5044683B00120019000202646403678
:101390000090307C0C9F1D4601280FD00120307436
:1013A000FFF7FAFA0290707C616801280DD0CA1F1D
:1013B000FD3A08D1A168002905D102E0022007B05A
:1013C000F0BD042801D00220C3E00498002828D0F2
:1013D0000598002825D0002D23D0707C042801D04A
:1013E00005207074002060650599A163E587A587D5
:1013F00004992163E586A5862064606420680168FD
:10140000490603D401684022114301600121E068CC
:10141000C9028842606848D1002804D0012D02D05A
:101420003CE0012095E0206B21680088C860206BBB
:10143000801C2063E08E401EE0862FE020688168DB
:10144000890710D5E18E00290DD0019901290AD113
:10145000216B0988C160206B801C2063E08E401ED8
:10146000E0860020019020688168C9070DD0E18FD7
:1014700000290AD0C068A16B0880A06B801CA06303
:10148000E08F401EE08701200190FFF785FA0146BA
:101490000298081AB84201D3781C59D1E08E00286E
:1014A000CCD1E08F0028C9D146E0002801D0012D21
:1014B0003CD1206B216800780873206B401C2063AE
:1014C000E08E401EE08631E020688168890710D5F3
:1014D000E18E00290DD0019901290AD1216B0978EB
:1014E0000173206B401C2063E08E401EE0860020CC
:1014F000019020688168C9070DD0E18F00290AD0CA
:10150000C068A16B0870A06B401CA063E08F401EF8
:10151000E08701200190FFF73FFA0299401AB84294
:1015200002D3781C02D013E0002F11D0E08E0028E7
:10153000CAD1E08F0028C7D139462046029A00F070
:1015400038FA002807D0012000902020606509E0CB
:101550000320009006E0A068002803D12068C1683D
:10156000806801900120707400203074009826E794
:10157000094910B5401E884201D9012010BD074C11
:1015800060610321081F00F0F1F90020A06107202D
:101590002061002010BD0000FFFFFF0000E000E020
:1015A000F0B502462032137E012B15D001271776A5
:1015B0000223537605686C68AB687026B4430E68E6
:1015C000496826438024A34319436E600068816004
:1015D000577600201076F0BD0220F0BD70B50400F3
:1015E00005D025462035687E002802D006E001207F
:1015F00070BD00202876204600F00AF802206876A8
:10160000211D206800F0A6FA01206876002070BD38
:1016100000680449884204D10348816B10221143B9
:101620008163704700100040001002400222014612
:1016300020314A760068826801235207520F062A39
:1016400002D002681A4302604B7600207047000007
:1016500002210246203251760168086A054B184281
:1016600003D108684008400008600120507600203F
:10167000704700001111000010B5040003D0606F26
:10168000002802D007E0012010BD00217020015584
:10169000204600F027F82420606720680168490888
:1016A00049000160204600F017FB0128ECD0606A79
:1016B000002802D0204600F079FA2068416809220B
:1016C000D20291434160206881682A22914381605F
:1016D00020680168012211430160204600F0CCFA25
:1016E00010BD000010B586B0044614216846FEF710
:1016F0004CFD1149206888421CD11048416B0122E1
:10170000920311434163C16A01221143C162C06A5D
:10171000694610400590032040020090022001908D
:10172000002002900320039004200490052000076D
:10173000FFF762F806B010BD00380140001002400B
:10174000FFB50446406F83B017460D4620285CD194
:10175000002D0AD0002F08D0A168C001814207D116
:101760002069002804D1E80702D0012007B0F0BDAD
:10177000204660300290007C012846D0029801216A
:1017800001740020E06721206067FFF705F9264615
:1017900040360190378277820120A16800038142A0
:1017A00002D12069002802D02F46002511E0002731
:1017B0000FE000228021204600F0A2FB002815D176
:1017C000002F15D02168387888627F1C708A401EEF
:1017D0007082708A019B002806980090E9D100224F
:1017E0004021204600F08CFB002808D00320BDE7F4
:1017F00028882168C005C00D8862AD1CE6E720205E
:101800006067029900200874B0E70220AEE7FEE7A7
:10181000F0B587B014216846FEF7B7FC1E48C26ACF
:1018200080210A43C262C26A0A400592C16A012548
:101830002943C162C16A29400591C16A022421433A
:10184000C162C06A154F204005900022032138462E
:10185000FFF79BF8012204213846FFF796F8102085
:1018600000900F4801900026052069460296000767
:10187000FEF7C2FF07206A46039461C269463846F4
:10188000FEF7BAFF002211460720FFF7DFF8072016
:10189000FFF7D2F807B0F0BD00100240000400507E
:1018A0000000111010B50F480D490160FF210531EE
:1018B000416000218160C1600122426101615202E8
:1018C0008261016220224162C26181620721C1629C
:1018D000FFF7E1FC002801D0FEF758FF10BD000023
:1018E00000300140580000201CB500240E48009430
:1018F0000C49019401601F21846041600B494461DF
:10190000C160FFF76BFE002801D0FEF73FFF009497
:10191000694605480194FFF743FE002801D0FEF711
:1019200035FF1CBD00100040B0000020FFFF00008C
:1019300010B50C480A490160E121490241600021CB
:101940008160C16001618161C1610C2201624261FB
:101950004162FFF791FE002801D0FEF717FF10BD8E
:1019600000380140EC000020704700008307FF2290
:10197000DB0E9A408907090E994000280BDA000710
:10198000000F0838830808489B001818C369934360
:101990000B43C3617047830804489B001B181868F9
:1019A000904308431860704700ED00E000E400E059
:1019B000704738B504464068FF2305332025984218
:1019C00004D100920B460022802107E05120005DE7
:1019D00005280DD100920B4600220121204600F07F
:1019E00009F8002804D0606D28436065032038BDE5
:1019F000002038BDF8B51D4617460E46044609E0DE
:101A0000681C07D0FEF7C8FF0699401AA8420BD2FF
:101A1000002D09D020688168304688432ED00020F0
:101A2000B842EDD10020F8BD20684168E022914322
:101A300041606068C11FFD390CD10121A068C90354
:101A4000884202D04911884204D1206801684022AE
:101A5000914301600120A16A4003814207D12168BE
:101A60000A6882430A6021680A6802430A6001200A
:101A700040346074002020740320F8BD0120CFE7BB
:101A8000704710B5FEF78EFF10BD000030B59DB059
:101A900038216846FEF779FB142117A8FEF775FB7D
:101AA00024210EA8FEF771FB144801680322D2021C
:101AB0009143C21489180160500101900B900320DA
:101AC000022180040C900125880500950D900A9153
:101AD0006846FFF79DF90F20179000240320189007
:101AE00019941A9401211B9417A8FFF77FF80EA8E8
:101AF0000E951194FEF7AEFF1DB030BD0070004092
:101B000010480168821511430160C1680E4A1140F6
:101B1000C16001680D4A11400160816849084900AF
:101B2000816001680122920491430160C168FD2235
:101B300012049143C160002101610549C00388601E
:101B400070470000001002400C40FF88F6FFF6FED0
:101B500000ED00E070B5026801239B07114C124DA7
:101B6000984203D0A04201D0A84203D17026B243CC
:101B70004E683243984203D0A04201D0A84204D11B
:101B800003231B029A43CB681A4380239A430B69B1
:101B90001A4302608A68C262096881620121416158
:101BA00070BD0000000801400014014010B5818C98
:101BB000C90707D001684A6801235B049A43836A16
:101BC0001A434A60818C890707D501684A68012356
:101BD0001B049A43C36A1A434A60818C490707D59C
:101BE00001684A6801239B049A43036B1A434A60C5
:101BF000818C090707D501684A680123DB039A43F2
:101C0000436B1A434A60818CC90607D50268916804
:101C100001231B039943836B19439160818C8906CF
:101C200007D501688A6801235B039A43C36B1A4393
:101C30008A60818C490612D503685A68012109051A
:101C4000046C8A4322435A60026C8A4207D10268BC
:101C5000516803235B059943436C19435160818CA0
:101C6000090607D501684A680123DB04806C9A43A2
:101C700002434A6010BD0000F8B500260446C6675E
:101C8000FEF78AFE054620680068124F000709D556
:101C900001212B46002249052046009700F030F92B
:101CA00000280DD12068006840070BD501212B4684
:101CB000002289052046009700F022F9002801D073
:101CC0000320F8BD20206067A067603426740020E0
:101CD000F8BD0000FFFFFF01F8B504462669A268C1
:101CE000E76932436669102000253E43236832438A
:101CF00078491E68784F3E4016431E6023685A6834
:101D000003263603B243E66832435A602368A26969
:101D10008B4201D0266A32439E680B273F02BE43A6
:101D200016439E606D4E23686D4AB3420CD1D26853
:101D30009207920F06D0012A38D0022A34D0032A03
:101D400020D11EE001201DE0664EB3420AD1D268C8
:101D50000C26324026D0042A28D0082A24D00C2A67
:101D600010D10EE08B420DD1D668032292021640AC
:101D700018D001229202B61A18D0B61A14D0964280
:101D800000D10820564A0126403A574FF6038B42AD
:101D900036D100280CD002280DD0042812D00828F3
:101DA0001FD11CE00020EDE70220EBE70420E9E76B
:101DB000FEF7D2FF08E01068C00601D5384605E0FE
:101DC0004A4803E0FEF7E8FF002873D0626851003C
:101DD0005118814205D81103814202D303E03046F5
:101DE000F4E7012566E0010E0602500800233018D2
:101DF0005941FEF793F903210902411A3C4A55E083
:101E0000E169B14232D1030000F0D1F809070A0DAF
:101E100006250606062B0600E3E7FEF79DFF1CE0FD
:101E2000FEF7AAFF19E010686168C00602D54808ED
:101E3000304A01E0304A48088018FEF759F980B26C
:101E400001462E4A10399142CBD8511C014000075F
:101E5000400F08432CE0FEF79FFF616840004A08EE
:101E6000EAE76168012248081204E5E7030000F090
:101E70009EF809070A0D06260606062C0600B0E79E
:101E8000FEF76AFF1DE0FEF777FF1AE01068616851
:101E9000C00602D54808C01902E014484A081018C4
:101EA000FEF726F980B20146144A1039914298D8BB
:101EB0002168C8600020206660662846F8BDFEF7ED
:101EC0006BFF61684A088018EAE761684808801972
:101ED000E6E7000000480040F369FFEF00380140EA
:101EE000401002400044004000093D000024F4007E
:101EF000FFFC0F0000127A000048E801EFFF00002D
:101F0000FFB581B017460E4604460A9D09E0681CDD
:101F100007D0FEF741FD0499401AA8420CD8002DC5
:101F20000AD02068C1693046884318D00020B842E2
:101F3000EDD0002005B0F0BD20680168FF22A1327D
:101F40009143016020688168490849008160202030
:101F50006067A0670020603420740320EAE7012056
:101F6000E5E700000FB410B5024604A9034B03983F
:101F700000F0F4F810BC08BC04B01847AD2B000802
:101F80002021020C01D010211046020A01D0104677
:101F90000839020901D01046091F820801D01046F5
:101FA000891E420801D0881E7047081A704730B455
:101FB0007446641E2578641CAB4200D21D46635DE6
:101FC0005B00E31830BC184702E008C8121F08C1C4
:101FD000002AFAD170477047002001E001C1121FAA
:101FE000002AFBD170470000F0B51FB486B00998F5
:101FF000089A030D0021024314D05148514A181881
:10200000504305141198012810981AD0281A401C22
:1020100000264D4F4D49009601910490002812DA98
:10202000444211E01198012449A3012801D11098DC
:10203000C1430698119A84600360C26041600BB08E
:10204000F0BD4042E4E70446210500203F4A001C61
:1020500051410391029012E0E00707D032463B461F
:1020600001990098FEF79CF80191009032463B469A
:1020700010461946FEF794F806460F466410002CE9
:10208000EAD10498039B0028029A0999089806DA75
:10209000FEF786F8019B009AFEF782F805E0FEF74E
:1020A000E7F8019B009AFEF7E3F804460E4600228B
:1020B000284BFEF72DFB03D80020C043014607E064
:1020C0000022254B20463146FEF750FAFEF700FB72
:1020D000102409E0002C0ADB0A220023FEF71EF878
:1020E000079B30321A55641E02460A43F2D1112270
:1020F000641C079B121B1C19119B012B03D001238D
:1021000008430ED10AE0084304D0112010900020AB
:10211000119077E71098151A6D1E0BE01098824207
:1021200002DD00236D1C03E0824201DA00236D1EF4
:10213000002BEED0069811998260C16030C07EE716
:1021400001FCFFFF104D0000000014400000F03FB4
:10215000300000000000F0430000E03FFFB597B002
:102160000646002518E2252877D100242746FD4998
:10217000049400E00443761C32780120203A904019
:102180000842F7D130782A280ED002223078014652
:102190003039092916D804990A235943303940188F
:1021A0001443761C0490F1E7189802C80491189023
:1021B000002904DA0120400304434842049002202D
:1021C0000443761C30782E2814D104200443707800
:1021D000761C2A2809D11898761C80C8189009E026
:1021E0000A214F43303FC719761C307801463039F9
:1021F0000929F5D930786C2810D006DC4C281AD083
:1022000068280ED06A2817D104E0742813D07A28E1
:1022100012D110E00120400504430CE00121090522
:1022200001E0032109050C437178814203D10120AB
:1022300000052418761C761C3078119066280BD087
:1022400013DC58287DD009DC00287BD04528F6D047
:102250004628F4D047281AD1A5E118E0632835D0E4
:10226000642870D0652812D19DE170286CD008DCFC
:102270006728F1D069287BD06E280DD06F2806D151
:10228000BAE073282ED0752871D0782859D01A9AC0
:10229000199990476D1C7EE16002400F022809D019
:1022A00003280DD00428189801680DD00D60001D7A
:1022B000189070E11898EA1701680D604A60F6E717
:1022C000189801680D80F2E70D70F0E718986A46DB
:1022D00001781172001D18900020507202A8009021
:1022E000012005E0189802C8189000200091C04312
:1022F00061070DD5002101E00199491C0191B94206
:1023000012DA8142F8DB009A515C0029F4D10BE02B
:10231000002101E00199491C01918142FADB019AF7
:102320000099895C0029F5D1019904981A9B471AF4
:1023300021463846199A00F097FA01994019451834
:102340000BE04FE02CE113E04EE00098009900789C
:10235000491C00911A9A199990470198401E0190C2
:10236000401CF2D1214638461A9B199A10E137E0F9
:102370000A200021009001916002410F022907D03C
:10238000189A01CA1892C2179446032908D00AE085
:102390001898C01DC108C90005C91891944607E0E6
:1023A00000B2C2179446042902D140B2C1178C462C
:1023B00000226146944506DA0A46002140429141D6
:1023C0008C462D2102E0210504D52B216A4611738C
:1023D000012103E0E10701D02021F7E7029155E058
:1023E0000A200AE0102008E01020009000210420BC
:1023F00004430191082703E0082000210191009087
:102400006002410F022907D0189A01CA18920022CF
:102410009446032908D008E01898C01DC108C900D7
:1024200005C91891944603E080B2042900D1C0B2D6
:1024300000210291210729D51199702906D0009A0F
:102440001021019B4A401A4305D00EE040216A4604
:102450001173012108E06146014306D030216A462C
:1024600011731199517302210291009A0821019B65
:102470004A401A430AD16146014301D1610705D59B
:1024800030216A46117301217F1E0291119958294A
:1024900004D035A10E910DA90D910DE037A1F9E7FA
:1024A0006146019B009AFDF739FE0E9B8C469B5CB2
:1024B0000D9A521E0D92137061460143F0D10D9892
:1024C00005A9081A20300190600703D501200004F7
:1024D000844300E001270198874201DD381A00E0BB
:1024E0000020019900904118029809180498401A98
:1024F0000490E00306D421461A9B199A049800F030
:10250000B3F94519002706E003A81A9AC05D199986
:1025100090476D1C7F1C02988742F5DBE0030CD5C9
:1025200021461A9B199A049800F09EF9451904E077
:102530001A9A3020199990476D1C0099481E0090F6
:102540000029F5DC08E00D980D990078491C0D91E3
:102550001A9A199990476D1C0199481E01900029FB
:10256000F1DC63E10928010030313233343536378C
:1025700038396162636465660000000030313233CF
:10258000343536373839414243444546000000006F
:1025900000F05AF94519761C3078002800D0E2E5A1
:1025A00028461BB0F0BD600700D406271898C01D50
:1025B000C108C90048680A680831C30FDB071891D1
:1025C000190001D09CA108E0210501D59BA104E0E0
:1025D000E10701D09AA100E09AA1430011985B089D
:1025E000109165280CD006DC452809D046281DD05E
:1025F000472841D141E0662818D067283CD13CE00B
:102600000021112F01DB112000E0781C01910090C6
:1026100008A911A8FFF7E8FC139905910021119A68
:1026200015927F1C12980197009150E00120C0077D
:1026300003900120019008A9009711A8FFF7D4FC8E
:10264000139A149905920022119B009212981593E7
:10265000059A0192002901D0104602E0791C401829
:102660000190381A01D5019804E04042401E0090C4
:10267000781C0190C01B029043E0012F00DA012773
:102680000021112F01DD112000E03846019100905A
:1026900008A911A8FFF7A8FC13990591119A002128
:1026A000129815920091019721070CD40599B9420F
:1026B00001DB019900E00191012904DD159A491E11
:1026C000515C302906D0B84201DA011D05DA01213A
:1026D000029115E00199491EEDE7002805DC0099FB
:1026E000411800910199091A03E0019A411C914295
:1026F00000DD01910099401A401C02900120C007A2
:102700000390200706D402990198814202DB002041
:10271000C043029000206946C87707AF01210398A3
:102720000337C907884224D0022011902B20129031
:10273000039800280CDA404203902D20129007E005
:102740000A210398FDF7D4FC30317F1E03903970C5
:102750001199481E11900029F2DC03980028EFD14E
:10276000791E129808703078202108404530BF1E2D
:10277000387006A8C01BC01D039010980078002870
:1027800000D00120019941180298C0170918039838
:1027900009180498401A401E0490E00306D421460C
:1027A0001A9B199A049800F05FF845191098007860
:1027B000002803D01A9A199990476D1CE00324D57C
:1027C00021461A9B199A049800F04EF845191CE00E
:1027D0000098002807DB00990598884203DD1598CA
:1027E000405C199901E0199930201A9A9047009895
:1027F0006D1C401C00900298401E0290002804D1DD
:102800001A9A2E20199990476D1C0199481E019023
:102810000029DDDC05E038781A9A7F1C1999904769
:102820006D1C0399481E03900029F4DC21461A9B75
:10283000199A0498ACE600002D0000002B0000005F
:102840002000000000000000F8B5044600251E46E8
:102850001746880404D405E039462020B0476D1C93
:10286000641EF9D52846F8BDFFB50446002581B0A1
:102870001E46C80301D5302700E02027880404D570
:1028800005E038460399B0476D1C641EF9D528460B
:1028900005B0F0BD38B5012080F3108848200090C5
:1028A000424B43A248A15248FFF75CFB51A150485C
:1028B000FFF758FB524D012204212846FEF765F828
:1028C0000524240710212046FEF752F80028F9D1EC
:1028D0004C200090354B36A23BA14548FFF742FB08
:1028E00044A14348FFF73EFB002201212846FEF7A2
:1028F0004CF8F02000F0D4F94F2000902B4B2CA284
:1029000031A13B48FFF72EFB3AA13948FFF72AFBDC
:1029100010212046FEF72CF80028F9D15120009014
:10292000224B23A228A13248FFF71CFB31A13048DB
:10293000FFF718FB012211462846FEF726F806216C
:10294000002000F0BDF90121084600F0B9F900218E
:10295000022000F0B5F9F021032000F0B1F90021C8
:10296000042000F0ADF910212046FEF701F8002800
:10297000F9D1002201212846FEF707F8F02000F0E7
:102980008FF9012211462846FDF7FFFF62200090D3
:10299000064B07A20CA11648FFF7E4FA15A114484C
:1029A000FFF7E0FA002080F3108838BD082D0008FA
:1029B0002E2E5C436F72655C5372635C616473318D
:1029C0003235362E630000005B094442475D2846DD
:1029D000696C653A25732C2046756E633A25732819
:1029E000292C204C696E653A2564293A20000000A4
:1029F00014000020696E69740D0A0D0A00000000C1
:102A000000040050F0B58BB00646202102A8FDF767
:102A1000BCFB0524240710212046FDF7A9FF002850
:102A2000F9D1314608200143012000F049F9324F25
:102A3000002201213846FDF7A8FFFC2000F030F904
:102A4000052000F09BF8002000F02AF9052000F096
:102A500095F8012000F024F9192000F08FF800F01B
:102A60000BF9B40002AD295900040843285100F0C5
:102A700003F9295900020843285100F0FDF82959AB
:102A800001220843285111463846FDF77EFF285998
:102A90001A49884202DD0906401828511849085190
:102AA000FDF75EFC0022174BFDF77AFB032292072D
:102AB000154BFDF7DDFBFDF77BFC114F134B20376A
:102AC00038518120009012A217A12148FFF74AFA3D
:102AD0003859FDF759FC00900191094832460359D5
:102AE0001CA11B48FFF73EFA02210348FDF745FFF2
:102AF00028590BB0F0BD000000040050FFFF7F001C
:102B00001800002000001440FFFF5F41142D000852
:102B10002E2E5C436F72655C5372635C616473312B
:102B20003235362E630000005B094442475D28467B
:102B3000696C653A25732C2046756E633A257328B7
:102B4000292C204C696E653A2564293A2000000042
:102B5000140000200D0A09CDA8B5C02564414443E6
:102B6000B2C9BCAFCAFDBEDD3A2530782C09B5E745
:102B7000D1B9D6B525660A0D0A00000070B5094D19
:102B8000094E281A84B2306844623046FEF74EFD82
:102B9000306801E0416A8CB2AC42FBD30248FEF7D8
:102BA00057FD70BDFAFF0000B000002038B50446A4
:102BB000684604700223012269460248FEF7C0FD00
:102BC000204638BDEC00002008B5FDF7F3FEFEF707
:102BD0005DFFFEF71DFEFEF7ABFEFEF763FEFEF7A0
:102BE00083FE642000900F4B0FA214A11D48FFF735
:102BF000B9F91DA11B48FFF7B5F9FFF74BFE1D4DB5
:102C000000262878002808D02E7000242046FFF7E0
:102C1000F9FE641CE4B2072CF8D33220FDF7B8FDAE
:102C2000EFE70000252D00082E2E2F436F72652F31
:102C30005372632F6D61696E2E6300005B0944421D
:102C4000475D2846696C653A25732C2046756E638E
:102C50003A257328292C204C696E653A2564293A57
:102C60002000000014000020696E69740D0A0D0A2E
:102C700000000000000000200EB5FF216846017230
:102C80000021017164200090012301AA02A90348D8
:102C9000FEF776FB684600790EBD00005800002064
:102CA00001B582B0002069460871642000900123BC
:102CB00001AA02A90148FEF763FB0EBD58000020DF
:102CC000F8B5104D0E460446002201212846FDF7B6
:102CD0005CFE05273F0710213846FDF749FE002816
:102CE000F9D12007000F5030FFF7DAFF0020FFF77F
:102CF000D7FF3046FFF7D4FF012211462846FDF7E3
:102D000044FEF8BD00040050616473313235364929
:102D10006E69740061647331323536526561645690
:102D2000616C7565006D61696E0000000000000057
:102D300000000102030406070809030406080C103A
:102D40001820300000000001020304006C2D000870
:102D50000000002018000000C81F0008842D000893
:102D60001800002058050000D81F000800000000CF
:102D7000010000000400000000000000000020002E
:042D8000000000004F
:04000005080000C12E
:00000001FF
