:020000040800F2
:1000000050050020D5000008851600082B150008B3
:1000100000000000000000000000000000000000E0
:100020000000000000000000000000009D17000814
:100030000000000000000000CD1600089F17000817
:10004000E7000008E7000008E7000008E7000008F4
:10005000E7000008E7000008E7000008D9040008EE
:10006000E7000008E7000008E7000008E7000008D4
:10007000E7000008E700000800000000E7000008B3
:1000800000000000E7000008000000000000000081
:10009000E700000800000000E7000008E700000893
:1000A000E7000008E7000008E7000008E700000894
:1000B000E7000008E7000008E7000008E700000884
:1000C0000348854600F0C8F8004800473D21000875
:1000D000500500200448804704480047FEE7FEE73B
:1000E000FEE7FEE7FEE7FEE71D180008C100000876
:1000F00030B50B46014600202022012409E00D46C0
:10010000D5409D4205D31D469540491B2546954047
:1001100040191546521E002DF1DC30BD70B500248B
:100120002546002801DA01244042002901DA012590
:100130004942FFF7DDFFAC4200D04042002C00D026
:10014000494270BDF0B51FB40646002082B0054696
:100150004024019100901BE0019922460F46304651
:1001600000F068F8049A059B801A994110D3104654
:100170001946224600F04EF8361A8F410197224662
:1001800001200021009F00F045F838184D410090F3
:100190002046641E0028DFDC019B00982946324679
:1001A00007B0F0BDF8B500242546002904DA0E4654
:1001B000012400214042B141002B04DA1E460023F5
:1001C00052420125B341FFF7BDFF8C4617461E463C
:1001D000AC4203D0002540428D41AC46002C02D0F9
:1001E000002657429E4161463A46334601B0F0BD73
:1001F000D2B201E00270401C491EFBD270470022BF
:10020000F6E710B513460A4604461946FFF7F0FF15
:10021000204610BD10B5202A04DB0146203A91404B
:10022000002010BD914020239C1A0346E34019434F
:10023000904010BD10B5202A04DB0846203AD0407B
:10024000002110BD0B46D340D0402024A21A91407B
:100250000843194610BD0000064C0125064E05E076
:10026000E36807CC2B430C3C98471034B442F7D3D7
:10027000FFF72AFFEC2300080C240008F8B5044619
:1002800017480D4604704170012080F31088052046
:1002900001F02EFF00F0DEF81248134F455D0426F2
:1002A00000220121384600F0FEF9502002F06CF8DF
:1002B000032002F069F8304602F066F8082002F0E8
:1002C00063F8204602F060F8284602F05DF801224B
:1002D0001146384600F0E7F9322001F009FFF8BD79
:1002E00014000020A823000800040050072801D9AA
:1002F00000207047012181F31088044980004018D4
:100300004068002181F3108870470000140000202D
:1003100070B5344C002661792546203D20790029AE
:1003200008D0002831D0012831D0022831D003284C
:1003300031D034E0072805D800010830C1B20120CF
:1003400000F0AEF8052001F0D3FEFC2000F094F898
:10035000052001F0CDFE002000F08EF8192001F0FC
:10036000C7FE207900280CD000F03EF821798900E2
:1003700068502079401CC0B22071082800D3267133
:1003800070BD00F031F82862F3E7012104E0232179
:1003900002E0452100E06721012000F081F80520FE
:1003A00001F0A6FEFC2000F067F8052001F0A0FE99
:1003B000002000F061F8192001F09AFE2079002851
:1003C0000BD000F011F82179890068502079401C89
:1003D000C0B220710428D2D270BD00F005F82861A7
:1003E000F4E700003400002070B5114E0022012116
:1003F000304600F058F9012001F0C6FF0A2001F054
:1004000077FE01F0ADFF040401F0AAFF05022543C9
:1004100001F0A6FF044601222C431146304600F0AD
:1004200042F9200202D5FF2000060443204670BD99
:10043000000400500649002248710A711046203914
:1004400083005B18401CC0B25A600828F8D370477C
:100450003400002070B500240526064D3607102113
:10046000304600F01BF9002802D0641CAC42F6D3E1
:1004700070BD0000005A620270B5084C05460022AB
:100480000121204600F00FF9284601F07DFF0122EE
:100490001146204600F007F970BD0000000400502E
:1004A00070B50C4D0E46044600220121284600F08E
:1004B000FAF820465021084301F066FF002001F0C1
:1004C00063FF304601F060FF01221146284600F02C
:1004D000EAF870BD0004005010B5102000F016F8C6
:1004E00010BD704710B5012181F31088102808D184
:1004F00005201021000700F0D1F8002801D1FFF7F6
:1005000007FF002080F3108810BD000010B50449DB
:100510004A69024202D04861FFF7E4FF10BD0000C3
:1005200000040140FCB500230124A2E027462A462E
:100530009F403A406FD04D68012D05D0022D03D069
:10054000112D01D0122D16D185680326AC465D0011
:10055000AE46AE406546B543AC46CE687546AE4045
:1005600065462E43866046680D79BE43ED06ED0F65
:100570009D4035434560C6685F000325BD40AE46DB
:10058000AE4335468E68BE402E43C6604E68022E8E
:1005900001D0122E14D1DE08B60036180196366A44
:1005A0005D07B446EE0E0F25B54000966646AE4395
:1005B000B4460D69009EB54066462E43019D2E62ED
:1005C00006687546AE430D79AD07AD0FBD403543A6
:1005D00005604D68ED004BD5294D6E6B26436E636B
:1005E0009E08284DB6007519AC46AD689E07360FBB
:1005F0000F27B740BD4305273F07B84201D1002769
:1006000015E0214FB84201D1012710E01F4FB84239
:1006100002D102270BE02BE01D4FB84201D1032786
:1006200005E01C4FB84201D1052700E00627B7407E
:100630002F436546AF60184D2E684F689643FF0301
:1006400000D516432E606E684F689643BF0300D5F1
:1006500016436E60AE684F689643FF0200D516439E
:10066000AE60EE684F689643BF0200D51643EE6059
:100670005B1C0A681546DA4000D057E7FCBD000055
:10068000001002400000014000040050000800502B
:10069000000C0050001C005000040140006908409C
:1006A00000D001207047002A01D08161704781622B
:1006B000704700000148806870470000000000207B
:1006C0000248816802788918816070470000002024
:1006D00010B50848002401684022114301602046FB
:1006E00000F00AF8002801D0012401E000F026F80B
:1006F000204610BD0020024070B504460D4D7D20FF
:100700002978C000FFF7F4FC01460B480068FFF7AA
:10071000EFFC00F0BBFD002809D1042C07D2002219
:100720002146401E00F020F800206C6070BD0120C2
:1007300070BD0000000000200C0000200448416B48
:10074000012211434163816B0204114381637047AD
:1007500000100240C106C90E01208840014908600E
:100760007047000000E100E010B500F08DFF10BD03
:10077000F8B504460068614D810601D400057DD5B9
:100780005E4E0027403EB06BC00004D4B06B310415
:100790000843B06301275A480168C90511D40168AC
:1007A000821511430160FFF785FF009005E0FFF718
:1007B00081FF0099401A642844D851480068C00558
:1007C000F5D5316803200005626801401040884279
:1007D00005D10323A0681B051840884208D0900368
:1007E000800F032804D13068800301D50120F8BDB3
:1007F000286903210904084029D00A40824202D016
:100800002278920606D4A2680A4082421FD020882D
:1008100000051CD528692A6988430121C9040A43B7
:100820002A612A698A432A612861C0050FD5FFF72A
:1008300041FF009008E0FFF73DFF0099411A314861
:10084000814201D90320F8BD28698005F3D561688C
:100850008803800F032805D13268000582430140D8
:100860000A43326028690322616812041140084378
:100870002861002F06D0B16B012000E002E00007E4
:100880008143B1632078C00705D0E868E16880083B
:1008900080000843E8602078800705D5E8680C21CF
:1008A000884321690843E8602078400706D5E86856
:1008B00003218902884361690843E86020780007C2
:1008C00006D5E868032109038843A1690843E86065
:1008D0002078400606D5E868012189068843216A08
:1008E0000843E8602078000606D5E86803218904FB
:1008F0008843E1690843E8600020F8BD40100240E9
:100900000070004088130000F8B50E4605007DD049
:1009100053480068C007C00FB0420AD2504801686F
:1009200049084900314301600068C007C00FB04268
:1009300071D128784B4C800705D5E068F0218843B9
:10094000A9680843E0602878C00752D06868022888
:1009500017D0032818D02168012818D0890500294C
:1009600059DAE168890889000143E160FFF7A2FED6
:1009700069680746022912D003291CD0012926D014
:1009800033E021688903EAE721688901E7E749073D
:10099000E5E7FFF78FFEC11B3348814223D8E068AB
:1009A0000007800F0228F4D123E0FFF783FEC11B6C
:1009B0002D48814217D8E0680007800F0328F4D142
:1009C00017E0FFF777FEC11B274881420BD8E0688C
:1009D0000007800F0128F4D10BE0FFF76BFEC11B6D
:1009E0002148814201D90320F8BDE0680007800F4B
:1009F000F3D11B480168C907C90FB1420DD901687D
:100A00004908490031430160006800E003E0C00785
:100A1000C00FB04201D00120F8BD2878400706D5AC
:100A2000E068072109028843E9680843E060287804
:100A3000000707D5E0680721C90288432969C90072
:100A40000843E06000F036F8E168084A0906090F3B
:100A5000515CC840064908600020FFF74DFEF8BD14
:100A6000002002400010024088130000C923000843
:100A70000C000020044805490068C968044A49057B
:100A8000490F515CC84070470C0000200010024024
:100A9000E2230008044805490068C968044A89043B
:100AA000490F515CC84070470C0000200010024004
:100AB000E223000810B5184AD1680C200840042829
:100AC0000BD0082810D00C2810D050680004410F1B
:100AD0000120C003491C884010BD1068C00601D524
:100AE0000E4810BD0E4810BD0E4810BD88020E4BBA
:100AF000000F185C0902D368890F491CDB0301D57C
:100B0000084A05E01268D20601D5044A00E0044A0A
:100B10005043FFF7EDFA10BD0010024000093D0000
:100B20000024F400001BB700D9230008FEB505001F
:100B30007ED0FE4CE7680C20E668074001200004E8
:100B400006402878C00747D0082F05D00C2F0AD1BF
:100B500001200004864206D1206880033CD56868E5
:100B60000028E5D038E0012069680004814203D103
:100B700021680143216011E0052301221B04920436
:100B80009942216802D111432160F1E7814321603C
:100B90002168014000912068904320606868002827
:100BA0000DD0FFF787FD009005E0FFF783FD00996A
:100BB000401A64287AD820688003F6D50CE0FFF745
:100BC00079FD009005E0FFF775FD0099401A642853
:100BD000F0D820688003F6D42878800755D50923FB
:100BE000E868042F0DD00C2F01D1002E09D0002869
:100BF0003BD02168994301432160FFF75BFD064626
:100C000027E02168490701D5002891D061681F229B
:100C1000120291432A6912021143616021689943CB
:100C200001432160FFF746FFE16809060A0F00E073
:100C3000BBE1BF49895CC840BE4908600020FFF79E
:100C40005BFD002872D120E0FFF734FD801B0228F5
:100C5000B0D820684007F7D560681F210902884393
:100C600029690902084360600FE0206840084000DD
:100C70002060FFF71FFD064604E0FFF71BFD801B09
:100C8000022897D820684007F7D42878C0065FD597
:100C9000002F0CD0E869002849D02068FF210131DD
:100CA00008432060FFF706FD06462DE0E4E02068DB
:100CB000800502D5E8690028A7D0606807214903AC
:100CC0008843696A084360606068298C0002000AF2
:100CD000090608436060686A410B0120C003491C93
:100CE0008840E16809060A0F9149895CC84091492A
:100CF00008600020FFF700FD002817D128E0FFF76B
:100D0000D9FC801B0228A3D820688005F7D560682D
:100D1000072149038843696A084360606068298C39
:100D20000002000A09060843606011E023E121681F
:100D3000FF20013081432160FFF7BCFC064604E040
:100D4000FFF7B8FC801B02289BD820688005F7D4E9
:100D50002878794E000724D568690028306910D0BA
:100D6000012108433061FFF7A5FC009005E0FFF783
:100D7000A1FC0099401A02287ED830698007F6D578
:100D80000FE0400840003061FFF794FC009005E060
:100D9000FFF790FC0099401A02286DD8306980074F
:100DA000F6D42878400764D500200290A06BC000DC
:100DB00006D4A06B012109070843A063012002901B
:100DC0005E480168C90511D40168821511430160AC
:100DD000FFF770FC009005E0FFF76CFC0099401AEB
:100DE000642849D855480068C005F5D5FF20AA6891
:100DF0000130824203D131690143316111E00121A7
:100E00008902002A07D005231B029A4203D13269C6
:100E10000A433261EFE732698243326130698843C5
:100E20003061A86800280ED0FFF744FC009006E06F
:100E3000FFF740FC0099411A414881421CD83069B3
:100E40008005F5D50DE0FFF735FC009006E0FFF7D3
:100E500031FC0099411A3A4881420DD83069800529
:100E6000F5D40298002804D0A16B0120000781432B
:100E7000A1632878800600E07CE02ED53148A9697E
:100E80004314002916D0A26801210A43A260626BB4
:100E90000A436263016A19430162FFF70BFC0646CD
:100EA00004E0FFF707FC801B022863D8A0688007D6
:100EB000F7D512E0A16849084900A160016A994389
:100EC0000162FFF7F7FB064604E0FFF7F3FB801B28
:100ED00002284FD8A0688007F7D4A86A002866D0F7
:100EE0000C2F4DD0012636060228206805D0B043CD
:100EF0002060FFF7DFFB05463EE0B0432060FFF7D0
:100F0000D9FB074604E0FFF7D5FBC01B022831D808
:100F100020688001F7D4296BE86AE2680843696BAE
:100F2000FD231B049A43114308430DE000100240C7
:100F3000C92300080C00002040100240007000404F
:100F40008813000000000140E0602068304320600A
:100F5000FFF7B0FB054604E0FFF7ACFB401B02289F
:100F600008D820688001F7D521E0FFF7A3FB401BDC
:100F7000022801D90320FEBD20688001F5D416E0C7
:100F80000128F8D0E06801210904EA6A0140914291
:100F90000BD10F2189042A6B0140914205D1032115
:100FA00089050840696B884201D00120FEBD002000
:100FB000FEBD70B5040007D0002625464035A66268
:100FC000687C002802D005E0012070BD2E74204608
:100FD00000F030F8022068742068016840229143D4
:100FE0000160A168606822690843E1681143084311
:100FF000616901220843A169520211400843E16975
:101000000843216A0843A16A084321680860A0696F
:101010000421000C0840616A084321684860206888
:10102000C16992009143C161666501206874002026
:1010300070BD0000F0B587B0044614216846FFF784
:10104000DEF814492068884221D11348416B82148C
:1010500011434163C16A01221143C162C06A022483
:1010600010400590A02000250326694671C1C705E0
:10107000694638460495FFF755FA402000900194E0
:1010800069460396049502943846FFF74BFA07B079
:10109000F0BD00000030014000100240FFB50446E2
:1010A00083B0012001900020264640360090307C1D
:1010B0000C9F1D4601280FD001203074FFF7FAFA6B
:1010C0000290707C616801280DD0CA1FFD3A08D1DA
:1010D000A168002905D102E0022007B0F0BD042874
:1010E00001D00220C3E00498002828D005980028E9
:1010F00025D0002D23D0707C042801D005207074E9
:10110000002060650599A163E587A587049921639F
:10111000E586A5862064606420680168490603D4DA
:1011200001684022114301600121E068C902884240
:10113000606848D1002804D0012D02D03CE0012095
:1011400095E0206B21680088C860206B801C2063BC
:10115000E08E401EE0862FE020688168890710D568
:10116000E18E00290DD0019901290AD1216B09884E
:10117000C160206B801C2063E08E401EE086002052
:10118000019020688168C9070DD0E18F00290AD03D
:10119000C068A16B0880A06B801CA063E08F401E1C
:1011A000E08701200190FFF785FA01460298081AAE
:1011B000B84201D3781C59D1E08E0028CCD1E08F01
:1011C0000028C9D146E0002801D0012D3CD1206B78
:1011D000216800780873206B401C2063E08E401E5D
:1011E000E08631E020688168890710D5E18E00290A
:1011F0000DD0019901290AD1216B09780173206B67
:10120000401C2063E08E401EE08600200190206894
:101210008168C9070DD0E18F00290AD0C068A16B91
:101220000870A06B401CA063E08F401EE087012087
:101230000190FFF73FFA0299401AB84202D3781C96
:1012400002D013E0002F11D0E08E0028CAD1E08F29
:101250000028C7D139462046029A00F038FA002803
:1012600007D0012000902020606509E00320009055
:1012700006E0A068002803D12068C168806801905A
:101280000120707400203074009826E7094910B5D9
:10129000401E884201D9012010BD074C6061032126
:1012A000081F00F0F1F90020A06107202061002054
:1012B00010BD0000FFFFFF0000E000E0F0B50246B7
:1012C0002032137E012B15D0012717760223537687
:1012D00005686C68AB687026B4430E68496826439D
:1012E0008024A34319436E60006881605776002014
:1012F0001076F0BD0220F0BD70B5040005D0254683
:101300002035687E002802D006E0012070BD002054
:101310002876204600F00AF802206876211D206811
:1013200000F0A6FA01206876002070BD006804492C
:10133000884204D10348816B1022114381637047B6
:1013400000100040001002400222014620314A767F
:101350000068826801235207520F062A02D00268F1
:101360001A4302604B7600207047000002210246BB
:10137000203251760168086A054B184203D108688B
:1013800040084000086001205076002070470000AF
:101390001111000010B5040003D0606F002802D0C6
:1013A00007E0012010BD002170200155204600F00B
:1013B00027F8242060672068016849084900016017
:1013C000204600F017FB0128ECD0606A002802D00C
:1013D000204600F079FA206841680922D202914340
:1013E0004160206881682A229143816020680168F9
:1013F000012211430160204600F0CCFA10BD00002C
:1014000010B586B0044614216846FEF7F8FE11496F
:10141000206888421CD11048416B0122920311437D
:101420004163C16A01221143C162C06A694610402A
:1014300005900320400200900220019000200290BD
:10144000032003900420049005200007FFF76AF8AA
:1014500006B010BD0038014000100240FFB5044640
:10146000406F83B017460D4620285CD1002D0AD06E
:10147000002F08D0A168C001814207D1206900284F
:1014800004D1E80702D0012007B0F0BD204660304B
:101490000290007C012846D00298012101740020AE
:1014A000E06721206067FFF705F926464036019086
:1014B000378277820120A1680003814202D120692E
:1014C000002802D02F46002511E000270FE000225F
:1014D0008021204600F0A2FB002815D1002F15D056
:1014E0002168387888627F1C708A401E7082708AFA
:1014F000019B002806980090E9D100224021204657
:1015000000F08CFB002808D00320BDE72888216864
:10151000C005C00D8862AD1CE6E720206067029917
:1015200000200874B0E70220AEE7FEE7F0B587B010
:1015300014216846FEF763FE1E48C26A80210A43F2
:10154000C262C26A0A400592C16A01252943C1628A
:10155000C16A29400591C16A02242143C162C06A5F
:10156000154F20400590002203213846FFF79BF8D5
:10157000012204213846FFF796F8102000900F480A
:10158000019000260520694602960007FEF7CAFF73
:1015900007206A46039461C269463846FEF7C2FFD7
:1015A000002211460720FFF7DFF80720FFF7D2F8E7
:1015B00007B0F0BD00100240000400500000111000
:1015C00010B50F480D490160FF2105314160002130
:1015D0008160C16001224261016152028261016247
:1015E00020224162C26181620721C162FFF7E1FCF2
:1015F000002801D0FEF775FF10BD0000003001404B
:101600003C0000201CB500240E4800940C490194B5
:1016100001601F21846041600B494461C160FFF794
:101620006BFE002801D0FEF75CFF00946946054878
:101630000194FFF743FE002801D0FEF752FF1CBDC6
:101640000010004094000020FFFF000010B50C487F
:101650000A490160E1214902416000218160C160C5
:1016600001618161C1610C22016242614162FFF747
:1016700091FE002801D0FEF734FF10BD0038014074
:10168000D0000020704700008307FF22DB0E9A4045
:101690008907090E994000280BDA0007000F083867
:1016A000830808489B001818C36993430B43C36120
:1016B0007047830804489B001B1818689043084330
:1016C0001860704700ED00E000E400E0704738B5B6
:1016D00004464068FF2305332025984204D1009238
:1016E0000B460022802107E05120005D05280DD126
:1016F00000920B4600220121204600F009F8002844
:1017000004D0606D28436065032038BD002038BDDB
:10171000F8B51D4617460E46044609E0681C07D07A
:10172000FEF7C8FF0699401AA8420BD2002D09D037
:1017300020688168304688432ED00020B842EDD121
:101740000020F8BD20684168E02291434160606854
:10175000C11FFD390CD10121A068C903884202D004
:101760004911884204D120680168402291430160F8
:101770000120A16A4003814207D121680A6882439F
:101780000A6021680A6802430A60012040346074DC
:10179000002020740320F8BD0120CFE7704710B56A
:1017A000FEF78EFF10BD000030B59DB038216846B1
:1017B000FEF725FD142117A8FEF721FD24210EA810
:1017C000FEF71DFD144801680322D2029143C214A2
:1017D00089180160500101900B90032002218004C0
:1017E0000C900125880500950D900A916846FFF739
:1017F0009DF90F20179000240320189019941A9433
:1018000001211B9417A8FFF77FF80EA80E951194DD
:10181000FEF7AEFF1DB030BD0070004010480168FB
:10182000821511430160C1680E4A1140C160016810
:101830000D4A1140016081684908490081600168D2
:101840000122920491430160C168FD221204914378
:10185000C160002101610549C00388607047000034
:10186000001002400C40FF88F6FFF6FE00ED00E09D
:1018700070B5026801239B07114C124D984203D0AA
:10188000A04201D0A84203D17026B2434E68324331
:10189000984203D0A04201D0A84204D103231B02E6
:1018A0009A43CB681A4380239A430B691A43026018
:1018B0008A68C262096881620121416170BD0000CD
:1018C000000801400014014010B5818CC90707D001
:1018D00001684A6801235B049A43836A1A434A6099
:1018E000818C890707D501684A6801231B049A4344
:1018F000C36A1A434A60818C490707D501684A6860
:1019000001239B049A43036B1A434A60818C0907A5
:1019100007D501684A680123DB039A43436B1A43E6
:101920004A60818CC90607D50268916801231B03B0
:101930009943836B19439160818C890607D50168AF
:101940008A6801235B039A43C36B1A438A60818CC4
:10195000490612D503685A6801210905046C8A43B7
:1019600022435A60026C8A4207D1026851680323FD
:101970005B059943436C19435160818C090607D577
:1019800001684A680123DB04806C9A4302434A6081
:1019900010BD0000F8B500260446C667FEF78AFEB3
:1019A000054620680068124F000709D501212B4623
:1019B000002249052046009700F030F900280DD19B
:1019C0002068006840070BD501212B4600228905BD
:1019D0002046009700F022F9002801D00320F8BD2E
:1019E00020206067A067603426740020F8BD0000E6
:1019F000FFFFFF01F8B504462669A268E769324394
:101A00006669102000253E432368324378491E68EA
:101A1000784F3E4016431E6023685A6803263603FB
:101A2000B243E66832435A602368A2698B4201D010
:101A3000266A32439E680B273F02BE4316439E60D0
:101A40006D4E23686D4AB3420CD1D2689207920F53
:101A500006D0012A38D0022A34D0032A20D11EE031
:101A600001201DE0664EB3420AD1D2680C263240F6
:101A700026D0042A28D0082A24D00C2A10D10EE01F
:101A80008B420DD1D66803229202164018D0012253
:101A90009202B61A18D0B61A14D0964200D1082075
:101AA000564A0126403A574FF6038B4236D100285A
:101AB0000CD002280DD0042812D008281FD11CE019
:101AC0000020EDE70220EBE70420E9E7FEF7D2FF74
:101AD00008E01068C00601D5384605E04A4803E032
:101AE000FEF7E8FF002873D0626851005118814268
:101AF00005D81103814202D303E03046F4E7012503
:101B000066E0010E06025008002330185941FEF726
:101B100019FB03210902411A3C4A55E0E169B1422F
:101B200032D1030000F0D2F809070A0D0625060697
:101B3000062B0600E3E7FEF79DFF1CE0FEF7AAFF79
:101B400019E010686168C00602D54808304A01E013
:101B5000304A48088018FEF7CBFA80B201462E4A78
:101B600010399142CBD8511C01400007400F084367
:101B70002CE0FEF79FFF616840004A08EAE76168D1
:101B8000012248081204E5E7030000F09FF8090766
:101B90000A0D06260606062C0600B0E7FEF76AFFC9
:101BA0001DE0FEF777FF1AE010686168C00602D5F5
:101BB0004808C01902E014484A081018FEF798FABD
:101BC00080B20146144A1039914298D82168C86001
:101BD0000020206660662846F8BDFEF76BFF61684E
:101BE0004A088018EAE7616848088019E6E70000BB
:101BF00000480040F369FFEF003801404010024008
:101C00000044004000093D000024F400FFFC0F00E8
:101C100000127A000048E801EFFF0000FFB581B034
:101C200017460E4604460A9D09E0681C07D0FEF7D9
:101C300041FD0499401AA8420CD8002D0AD0206812
:101C4000C1693046884318D00020B842EDD000204A
:101C500005B0F0BD20680168FF22A1329143016008
:101C60002068816849084900816020206067A0677A
:101C70000020603420740320EAE70120E5E700003B
:101C80000FB410B5024604A9034B039800F03AF8CC
:101C900010BC08BC04B0184721210008F8B5041492
:101CA0008BB2264682B25E430D1410463714584359
:101CB000360480190021794116466E4337143604E4
:101CC0008019794126466E438919F8BD30B47446AF
:101CD000641E2578641CAB4200D21D46635D5B0028
:101CE000E31830BC184702E008C8121F08C1002AD8
:101CF000FAD170477047002001E001C1121F002A8D
:101D0000FBD17047FFB58FB00546002606E02528B9
:101D10000AD0129A119990476D1C761C28780028D9
:101D2000F5D1304613B0F0BD002402940121B54A2C
:101D3000009400E004436D1C2B780846203B98403B
:101D40001042F7D128782A280ED00222287801469E
:101D50003039092916D802990A23594330394018D5
:101D600014436D1C0290F1E7109802C80291109084
:101D7000002904DA01204003044348420290022073
:101D800004436D1C28782E2817D10420044368785A
:101D90006D1C2A280CD110986D1C02C8009110905F
:101DA0000BE000990A225143303940186D1C009015
:101DB0002878014630390929F3D928786C2810D0C1
:101DC00006DC4C281AD068280ED06A2817D104E007
:101DD000742813D07A2812D110E001204005044362
:101DE0000CE00121090501E0032109050C43697894
:101DF000814203D10120000524186D1C6D1C287838
:101E0000692874D006DC00288BD0632827D064288A
:101E100006D16CE06E2808D073282CD0752878D0B5
:101E2000129A11999047761C5FE06002400F0228D9
:101E300009D003280DD00428109801680DD00E6039
:101E4000001D109051E01098F21701680E604A6072
:101E5000F6E7109801680E80F2E70E70F0E7109830
:101E60006A4601781173001D10900020507303A87A
:101E70000190012005E0109802C801911090002007
:101E8000C04361070CD5002700E07F1C00998F42FA
:101E90000FDA8742F9DB0199C95D0029F5D108E025
:101EA000002700E07F1C8742FCDB0199C95D002907
:101EB000F8D102982146C01B0290129B119A00F0A3
:101EC000B3F88019C61907E0019801990078491CF8
:101ED0000191129A119990477F1EF5D22146129BCB
:101EE000119A029800F090F886196D1C16E70A20E6
:101EF0000190109901C910916102490F032900D185
:101F000000B2042900D140B2002803DA40422D215A
:101F100003E00DE0210504D52B216A461173012150
:101F200003E0E10711D02021F7E70CAF0C9114E09A
:101F30000A200190109901C910916102490F0329EB
:101F400000D180B2042900D1C0B20021EDE701998F
:101F5000FEF7CEF830317F1E39700028F7D104A883
:101F6000C01B20300190600704D501200004844389
:101F7000009801E0012000900199884201DD401A9B
:101F800000E00020411800900C9809180298401AAF
:101F90000290E00306D42146129B119A029800F0A9
:101FA00043F8861900200D9008E003A9085C129AF6
:101FB000119990470D98401C761C0D900C99884201
:101FC000F3DBE0030CD52146129B119A029800F036
:101FD0002BF8861904E0129A302011999047761C4C
:101FE0000099481E00900029F5DC05E03878129A27
:101FF0007F1C11999047761C0199481E0190002979
:10200000F4DC6BE709280100F8B5044600251E46FC
:102010001746880404D405E039462020B0476D1CDB
:10202000641EF9D52846F8BDFFB50446002581B0E9
:102030001E46C80301D5302700E02027880404D5B8
:1020400005E038460399B0476D1C641EF9D5284653
:1020500005B0F0BD38B5104C012204212046FEF732
:1020600022FB05252D0710212846FEF717FB002827
:10207000F9D1A7200090094B09A20FA11848FFF73A
:10208000FFFD18A11648FFF7FBFD0122114620466F
:10209000FEF709FB38BD000000040050B82300081B
:1020A0002E2E5C436F72655C5372635C61647331A6
:1020B0003235362E630000005B094442475D2846F6
:1020C000696C653A25732C2046756E633A25732832
:1020D000292C204C696E653A2564293A20000000BD
:1020E00010000020696E69740D0A0D0A00000000DE
:1020F00070B5094D094E281A84B2306844623046E2
:10210000FFF722F9306801E0416A8CB2AC42FBD3A0
:102110000248FFF72BF970BDFAFF00009400002081
:1021200038B5044668460470022301226946024815
:10213000FFF794F9204638BDD000002094B0FEF798
:10214000C7FAFFF731FBFFF7F1F9FFF77FFAFFF767
:1021500037FAFFF757FA68200090494B49A24EA181
:102160005748FFF78DFD57A15548FFF789FDFFF749
:1021700071FF6E200090424B42A247A15048FFF7EA
:102180007FFD54A14E48FFF77BFD00210846FEF776
:1021900075F80020FEF74EF9082500242046FEF7CA
:1021A000A5F8A70003AEF0515849FFF777FD584A4C
:1021B0000023FDF7F7FF3946641C0BAFE4B27850FB
:1021C000AC42EBD3942000902D4B2EA232A13C4880
:1021D000FFF756FD2A464FA13948FFF751FD00246D
:1021E000A7000BA8C659002E21DA9B20009076424A
:1021F000234B24A228A13248FFF742FD7D21C900CC
:102200003046FDF78BFF009146493046FDF786FFCB
:10221000064608467D21C900FDF780FF009B01901E
:102220000096029303A8C35922463FA11FE09F20B6
:102230000090134B13A218A12148FFF721FD7D2127
:10224000C9003046FDF76AFF009136493046FDF778
:1022500065FF064608467D21C900FDF75FFF009B2C
:1022600001900096029303A8C359224635A1144851
:10227000FFF706FD641CE4B2AC42B1D38DE7000069
:10228000C42300082E2E2F436F72652F5372632FC5
:102290006D61696E2E6300005B094442475D28460C
:1022A000696C653A25732C2046756E633A25732850
:1022B000292C204C696E653A2564293A20000000DB
:1022C00010000020696E69742073746172740D0AC5
:1022D0000D0A00000D0A504741D4F6D2E6203D20F9
:1022E000312C20CAFDBEDDCAE4B3F6CBD9C2CA2068
:1022F0003D2031357370732C20B5A5B6CB38C2B7ED
:10230000C9A8C3E80D0A0D0A0D0A0000A025260081
:10231000FFFF3F005B256443485F4E554D5D0D0A4E
:102320000000000040420F0025643D2536642C2843
:102330002D25642E25303364202530336420562922
:102340000D0A000025643D2536642C2825642E25C1
:1023500030336420253033642056290D0A000000F4
:102360000EB5FF21684601720021017164200090C2
:10237000012301AA02A90348FEF790FE68460079EE
:102380000EBD00003C00002001B582B0002069466F
:10239000087164200090012301AA02A90148FEF7F8
:1023A0007DFE0EBD3C000020F0E0D0C0B0A19282C6
:1023B00072635343332013036164733132353649FA
:1023C0006E6974006D61696E00000000000000001D
:1023D000000102030406070809030406080C10188C
:1023E0002030000000000102030400000C2400085B
:1023F0000000002014000000E61C00082024000853
:10240000140000203C050000F61C0008010000003C
:102410000400000000000000000020000000000098
:04000005080000C12E
:00000001FF
